:020000040800F2
:100000000000022035420008F10D0008F30D000841
:10001000F50D0008F70D0008F90D000800000000BC
:10002000000000000000000000000000613D00082A
:10003000FB0D000800000000013E00081D2600081E
:100040008542000885420008854200088542000874
:100050008542000885420008854200088542000864
:100060008542000885420008854200088542000854
:100070008542000885420008854200088542000844
:100080008542000885420008854200088542000834
:100090008542000885420008854200088542000824
:1000A0008542000885420008854200088542000814
:1000B0008542000885420008854200088542000804
:1000C00085420008854200088542000885420008F4
:1000D00085420008854200088542000885420008E4
:1000E00085420008854200088542000885420008D4
:1000F00085420008854200088542000885420008C4
:1001000085420008854200088542000885420008B3
:100110008542000885420008FD0D00088542000860
:100120008542000885420008854200088542000893
:100130008542000885420008854200088542000883
:100140008542000885420008854200088542000873
:100150008542000885420008854200088542000863
:100160008542000885420008854200088542000853
:100170008542000885420008854200080000000012
:080180008542000885420008D9
:1001900010B5054C237833B9044B13B10448AFF3C1
:1001A00000800123237010BDD40000200000000057
:1001B000FC4A000808B5034B1BB103490348AFF3E1
:1001C000008008BD00000000D8000020FC4A0008A4
:1001D00053B94AB9002908BF00281CBF4FF0FF31AE
:1001E0004FF0FF3000F072B9ADF1080C6DE904CEAC
:1001F00000F006F8DDF804E0DDE9022304B0704702
:100200002DE9F047089E04468846002B4BD18A42D0
:10021000154667D9B2FA82F24AB1C2F1200701FA53
:1002200002F320FA07F7954047EA030894404FEAA3
:10023000154E230CB8FBFEF71FFA85FC0EFB178842
:1002400043EA084307FB0CF1994209D9EB1807F17F
:10025000FF3080F01B81994240F21881023F2B440D
:100260005B1AA4B2B3FBFEF00EFB103344EA034466
:1002700000FB0CFCA44509D92C1900F1FF3380F0D8
:100280000781A44540F2048102382C4440EA07402B
:10029000A4EB0C0400271EB1D4400023C6E90043A0
:1002A0003946BDE8F0878B4209D9002E00F0EB807B
:1002B0000027C6E9000138463946BDE8F087B3FAA1
:1002C00083F7002F47D18B4202D3824200F2FA809B
:1002D000841A61EB030301209846002EE0D0C6E9A2
:1002E0000048DDE702B9FFDEB2FA82F2002A40F0F0
:1002F0008F80491B4FEA154E1FFA85F80127B1FB85
:10030000FEFC230C0EFB1C1143EA014308FB0CF11D
:10031000994207D9EB180CF1FF3002D2994200F252
:10032000CD808446591AA3B2B1FBFEF00EFB101427
:1003300043EA044408FB00F8A04507D92C1900F152
:10034000FF3302D2A04500F2B6801846A4EB0804A1
:1003500040EA0C409FE7C7F1200CBB4022FA0CFE9C
:100360004EEA030E01FA07F420FA0CF521FA0CF319
:100370004FEA1E482543B3FBF8F92C0C08FB193350
:100380001FFA8EFA44EA034309FB0AF49C4202FA7C
:1003900007F200FA07F10BD91EEB030309F1FF3056
:1003A00080F087809C4240F28480A9F10209734466
:1003B0001B1BADB2B3FBF8F008FB103345EA034456
:1003C00000FB0AFAA24508D91EEB040400F1FF3332
:1003D0006BD2A24569D90238744440EA0940A0FBB7
:1003E0000289A4EB0A044C45C2464B4654D351D073
:1003F000002E69D0B1EB0A0564EB030404FA0CFC8F
:10040000FD40FC404CEA0505C6E90054002747E7DB
:10041000C2F1200320FA03F7954001FA02F021FA15
:1004200003F34FEA154E3843010CB3FBFEF71FFAF6
:1004300085F80EFB173341EA034107FB08F38B42B3
:1004400004FA02F407D9691807F1FF3C2FD28B4256
:100450002DD9023F2944CB1A81B2B3FBFEF00EFB2B
:10046000103341EA034100FB08F38B4207D96918B6
:1004700000F1FF3C17D28B4215D902382944C91A22
:1004800040EA07473BE73746304609E70746E7E6D5
:100490001846FBE64145ABD2B8EB020A69EB0E0207
:1004A00001381346A4E76046E9E7184695E7674632
:1004B000D1E781467CE702382C4447E7ACF1020CD7
:1004C0002B442FE7384608E73746E9E6704700BF78
:1004D000034613F8012B002AFBD1181A0138704784
:1004E00001F0FF01102A2BDB10F0070F08D010F8E5
:1004F000013B013A8B422DD010F0070F42B3F6D1E9
:10050000F0B441EA012141EA014122F007047FF001
:1005100000070023F0E80256083C85EA010586EA58
:10052000010685FA47F5A3FA87F586FA47F6A5FA94
:1005300087F68EB9EED1F0BC01F0FF0102F00702A0
:1005400032B110F8013B013A83EA010313B1F8D14B
:100550000020704701387047002D06BF354603382C
:10056000073815F0010F07D1013015F4807F02BF65
:10057000013015F4C03F0130F0BC0138704700BFB6
:1005800030B583B005460C4600221021144800F017
:10059000E3FD64B204F01F00284302A901F8040D32
:1005A000642301220F4801F08AFA002C0FDB642338
:1005B00001220DF105010B4801F06AFC0122102116
:1005C000074800F0C9FD9DF8050003B030BD642365
:1005D00001220DF10501034801F05AFCE7E700BFD5
:1005E000000002402C4A0020F0B583B007460C46BC
:1005F00016460D4D00221021284600F0ADFD04F0F6
:100600001F043C438DF804408DF8056064230222EA
:1006100001A9064801F053FA01221021284600F0F2
:100620009BFD03B0F0BD00BF000002402C4A00203B
:1006300010B500F06004084B1B78A3420BD00322D6
:100640001F21A020FFF7D0FF034B1C7062091F2160
:100650008020FFF7C9FF10BDF000002010B5044650
:10066000FFF7E6FF21460020FFF78AFF10BD38B5EF
:100670000546FFF7F3FF84B2681CC0B2FFF7EEFF38
:1006800080B2000280B2204480B238BD38B5044642
:100690000D46FFF7CDFF2A4621464020FFF7A4FF75
:1006A00038BD38B504460D46C9B2FFF7EFFF601CF0
:1006B000290AC0B2FFF7EAFF38BD10B50C46014663
:1006C000D420FFF7E3FFE1B2D620FFF7DFFFEA20F7
:1006D000FFF7C4FF10F0010FF9D110BD10B50122D2
:1006E0001021444800F038FD01221021424800F05A
:1006F00033FD012000F0DEFB00221F21FF20FFF769
:1007000073FF022000F0D6FB1D210020FFF738FF09
:100710000028F9D000210820FFF7C3FF40F6FF3181
:100720000A20FFF7BEFF4FF440610420FFF7B9FF36
:1007300041F2FF110620FFF7B4FF00210C20FFF764
:10074000B0FF00210E20FFF7ACFF0A20FFF78FFF5C
:100750002A4B1880E0213820FFF798FF3820FFF758
:100760007DFF274C20700F214020FFF78FFF38209E
:10077000FFF774FF2070322242218020FFF734FF00
:1007800040F61241C620FFF78CFF1221C420FFF76C
:100790007DFF40F2DC51CA20FFF783FF3621E420C1
:1007A000FFF774FF3021E520FFF770FF2D21E220D5
:1007B000FFF76CFF6921E320FFF768FF6921E02064
:1007C000FFF764FF7421E120FFF760FF4FF49171A0
:1007D0001420FFF772FF4FF480711020FFF76DFFB8
:1007E0001F20FFF725FF04221F218020FFF7FCFEBA
:1007F00010BD00BF0000024000080240124A002065
:10080000104A0020F0B583B007460E460E4C002279
:100810001021204600F0A0FC02A97A2301F8043D33
:100820000A4D64230122284601F049F964233A461F
:100830003146284601F043F901221021204600F0FC
:100840008BFC03B0F0BD00BF000002402C4A00202A
:1008500038B504460D4680221F211046FFF7C4FE1E
:1008600080221F21A020FFF7BFFE0A221C21A0200A
:10087000FFF7BAFE4FF440610220FFF712FF04F5C4
:10088000406189B20620FFF70CFF002211467A2052
:10089000FFF7AAFE29462046FFF7B4FF08221F21D2
:1008A0008020FFF7A1FE00241C20FFF7D7FE10F0E8
:1008B0000A0F04D10134A4B2B4F57A7FF4D31C201A
:1008C000FFF7CCFE10F0020F02D1B4F57A7F04D30B
:1008D00008221F21A020FFF787FE38BD2DE9F04335
:1008E0008BB000240594069407940894099401940D
:1008F0002E4B1A6B42F080021A631A6B02F08002D0
:100900000192019A02941A6B42F001021A631A6B67
:1009100002F001020292029A03941A6B42F004025E
:100920001A631A6B02F004020392039A04941A6B7E
:1009300042F008021A631B6B03F008030493049B44
:10094000DFF8749022461021484600F005FC184F4D
:1009500022461021384600F0FFFB164E22464FF487
:10096000F041304600F0F8FB4FF01008CDF814804D
:10097000012506950794089405A9484600F002FB56
:10098000CDF8148006950794089405A9384600F020
:10099000F9FA4FF4F043059306950794089405A9D6
:1009A000304600F0EFFA0BB0BDE8F08300380240AB
:1009B00000080240000C02400000024008B50E4C46
:1009C0002046FFF785FD642382B221460B4801F0E3
:1009D000B7FD0B4C4FF48051204600F0C3FB4FF4A1
:1009E0007A7000F067FA4FF48051204600F0BAFBAD
:1009F000012001F0ADFEFBE700000020844A00204A
:100A0000000C024008B5012001F0A2FEFBE7000047
:100A100000B585B0FFF762FE4FF47A7001F098FEE2
:100A20004FF400511C4800F09DFBE120FFF716FE3B
:100A30001A4C2070E020FFF711FE6070E320FFF7F2
:100A40000DFEA070E220FFF709FEE070E520FFF741
:100A500005FE2071E420FFF701FE607122786378C3
:100A6000A178E57826790E4C0390029601950091C5
:100A70000C49204603F046FC2046FFF729FD64237D
:100A800082B22146084801F05BFD04F134012A20BE
:100A9000FFF7DEFEC0E700BF000C0240184A00204E
:100AA00000000020984B0008844A002008B5026826
:100AB000034B9A4200D008BD00F0EAF9FBE700BF03
:100AC0000010004072B6FEE708B50A480A4B036002
:100AD0004FF4E133436000238360C36003610C2261
:100AE00042618361C36101F0FCFC00B908BDFFF7FE
:100AF000E9FF00BF844A00200044004008B50D48CB
:100B00000D4B03604FF48273436000238360C36026
:100B1000036143614FF4007282611022C26103627B
:100B2000436283620A23C36200F06AFF00B908BD12
:100B3000FFF7C8FF2C4A00200030014000B595B0F7
:100B40003022002108A803F0D4FB00230393049370
:100B50000593069307930193204A116C41F080514D
:100B60001164126C02F080520192019A02931C4BA4
:100B70001A6842F480421A601B6803F480430293AF
:100B8000029B012308934FF48033099302220E92B3
:100B90004FF480030F9304231093A8211191129214
:100BA000139308A800F0E8FA98B90F2303930223DF
:100BB0000493002305934FF4A05306934FF48053FE
:100BC0000793052103A800F03FFD20B915B05DF89B
:100BD00004FBFFF777FFFFF775FF00BF0038024007
:100BE0000070004008B500F039F9FFF7A7FFFFF7E4
:100BF00075FEFFF769FFFFF781FF01F01BFD0D4C4C
:100C0000224600210C4801F045FD0C4B186004F110
:100C1000240200210A4801F03DFD0A4B186004F14E
:100C200048020021084801F035FD084B186001F02A
:100C300015FDFEE7144B0008BD090008144A00200A
:100C4000110A0008244A0020050A0008284A00204A
:100C500000B583B0002200920D4B596C41F48041E5
:100C60005964596C01F48041009100990192196C0A
:100C700041F0805119641B6C03F080530193019B78
:100C80000F216FF0010000F03BF903B05DF804FBA9
:100C90000038024000B589B0002303930493059304
:100CA000069307930268154B9A4202D009B05DF88B
:100CB00004FB0021019103F584335A6C42F4805205
:100CC0005A645A6C02F480520192019A02911A6B92
:100CD00042F001021A631B6B03F001030293029BB3
:100CE000E02303930223049303230693052307932E
:100CF00003A9034800F046F9D8E700BF00300140DF
:100D00000000024000B589B00023039304930593CB
:100D1000069307930268154B9A4202D009B05DF81A
:100D200004FB0021019103F5FA331A6C42F40032FE
:100D30001A641A6C02F400320192019A02911A6B41
:100D400042F001021A631B6B03F001030293029B42
:100D50000C2303930223049303230693072307938F
:100D600003A9034800F00EF9D8E700BF0044004093
:100D70000000024010B588B000220146362000F085
:100D8000BFF8362000F0F0F800240194144B1A6CE0
:100D900042F010021A641B6C03F010030193019BD4
:100DA00002A903A800F026FD00F004FD43000D4851
:100DB000A0FB03239B0C013B0B480C4A026040F252
:100DC000E732C26043600461846001F083FA10B1CD
:100DD000012008B010BD044801F012F9F9E700BF86
:100DE0000038024083DE1B43C84A00200010004048
:100DF000FEE7FEE7FEE7FEE7FEE7704708B50248BC
:100E000001F046F908BD00BFC84A002008B50346F6
:100E10000B4A126842B10A4A106803446A46934278
:100E200006D8074A136008BD054A06491160F2E773
:100E300003F02AFA0C2303604FF0FF30F3E700BF02
:100E4000F4000020584B0020034AD2F8883043F4C5
:100E50007003C2F88830704700ED00E008B50B4B16
:100E60001A6842F400721A601A6842F480621A60CA
:100E70001A6842F480721A60032000F02FF80F20E5
:100E8000FFF778FFFFF7E4FE002008BD003C0240BA
:100E9000034A1168034B1B780B441360704700BF73
:100EA000104B002064000020014B1868704700BF01
:100EB000104B002038B50446FFF7F6FF0546B4F1A5
:100EC000FF3F02D0044B1B781C44FFF7EDFF401B93
:100ED000A042FAD338BD00BF64000020074AD3689F
:100EE00023F4E0631B041B0C000200F4E0601843D1
:100EF00040F0BF6040F40030D060704700ED00E08B
:100F000030B4174BDB68C3F30223C3F10704042C8E
:100F100028BF04241D1D062D18D9033B4FF0FF35B3
:100F200005FA04F421EA0401994005FA03F322EAE0
:100F30000303194300280BDB0901C9B200F160402B
:100F400000F5614080F8001330BC70470023E5E7EE
:100F500000F00F000901C9B2024B1954F4E700BFB9
:100F600000ED00E014ED00E0002807DB00F01F02B8
:100F7000400901239340024A42F82030704700BFE5
:100F800000E100E000230F2B00F2DC80F0B482B01F
:100F90005DE086685F000324BC4026EA0406CC6856
:100FA000BC4034438460466826EA02064C68C4F3B9
:100FB00000129A403243426056E0DC08083450F890
:100FC000247003F0070296000F22B24027EA0207BE
:100FD0000A69B2403A4340F8242059E0072200E071
:100FE0000022B2403A430234574E46F82420574A72
:100FF0001468EA4302EA04064F6817F4803F01D000
:1010000045EA0406514C2660646802EA04064F680B
:1010100017F4003F01D045EA04064C4C6660A46812
:1010200002EA04064F6817F4801F01D045EA04065F
:10103000464CA660E46822404E6816F4001F01D0BA
:1010400045EA0402414CE26001330F2B77D80122BC
:101050009A400C6804EA0205AA42F5D14C6804F0F3
:101060000304013C012C94D94A6802F00302032ACC
:1010700009D0C4685E000322B24024EA02048A68F0
:10108000B2402243C2604A6802F00302022A94D0AE
:1010900004685E000322B24024EA02044A6802F0B7
:1010A0000302B240224302604A6812F4403FCBD0B0
:1010B00000220192264A546C44F480445464526CD9
:1010C00002F480420192019A9C08A61C1E4A52F822
:1010D000267003F0030296000F22B24027EA0207AF
:1010E0001C4A90423FF47CAF02F5806290421AD0D5
:1010F00002F58062904218D002F58062904216D0CC
:1011000002F58062904214D002F58062904212D0C3
:1011100002F58062904210D002F5806290423FF466
:101120005DAF08225DE701225BE7022259E7032257
:1011300057E7042255E7052253E7062251E702B09C
:10114000F0BC7047704700BF00380140003C0140D0
:10115000003802400000024012B909048161704762
:1011600081617047436901EA030221EA030141EA10
:101170000241816170470000002800F0E98170B5EC
:1011800082B00446036813F0010F3BD0A74B9B6865
:1011900003F00C03042B2CD0A44B9B6803F00C032E
:1011A000082B21D06368B3F5803F4FD0B3F5A02F53
:1011B00052D09E4B1A6822F480321A601A6822F4C8
:1011C00080221A606368002B50D0FFF76DFE054641
:1011D000964B1B6813F4003F14D1FFF765FE401BCC
:1011E0006428F5D90320B8E1904B5B6813F4800FB5
:1011F000D8D08E4B1B6813F4003F03D06368002BDC
:1012000000F0A881236813F0020F55D0874B9B682C
:1012100013F00C0F3ED0854B9B6803F00C03082B9A
:1012200033D0E368002B68D0814B01221A60FFF7AE
:101230003BFE05467D4B1B6813F0020F54D1FFF7B0
:1012400033FE401B0228F5D9032086E1774A136854
:1012500043F480331360B5E7744B1A6842F480227C
:101260001A601A6842F480321A60ABE7FFF71CFE7E
:1012700005466E4B1B6813F4003FC3D0FFF714FE06
:10128000401B6428F5D9032067E1684B5B6813F4C1
:10129000800FC6D1654B1B6813F0020F04D0E368C2
:1012A000012B01D0012058E1604A136823F0F803B4
:1012B000216943EAC1031360236813F0080F40D08B
:1012C000636963B35B4B01221A60FFF7EDFD0546CE
:1012D000564B5B6F13F0020F33D1FFF7E5FD401B58
:1012E0000228F5D9032038E1504A136823F0F803A7
:1012F000216943EAC1031360DEE74D4B00221A6007
:10130000FFF7D2FD0546494B1B6813F0020FD3D0FF
:10131000FFF7CAFD401B0228F5D903201DE1454B0C
:1013200000221A60FFF7C0FD0546404B5B6F13F0CB
:10133000020F06D0FFF7B8FD401B0228F5D90320A5
:101340000BE1236813F0040F79D0384B1B6C13F0BA
:10135000805F33D100230193344B1A6C42F08052EA
:101360001A641B6C03F080530193019B0125324BDF
:101370001B6813F4807F23D0A368012B34D0052B86
:1013800038D02A4B1A6F22F001021A671A6F22F026
:1013900004021A67A368002B36D0FFF785FD0646C6
:1013A000224B1B6F13F0020F48D1FFF77DFD801B0E
:1013B00041F288339842F3D90320CEE00025D6E7E6
:1013C0001D4A136843F480731360FFF76DFD0646F2
:1013D000194B1B6813F4807FCED1FFF765FD801B8E
:1013E0000228F5D90320B8E0104A136F43F0010337
:1013F0001367CFE70D4B1A6F42F004021A671A6F9A
:1014000042F001021A67C5E7FFF74EFD0646074B9B
:101410001B6F13F0020F11D0FFF746FD801B41F246
:1014200088339842F3D9032097E000BF0038024088
:1014300000004742800E474200700040EDB9A369AA
:10144000002B00F08980484A926802F00C02082ABA
:1014500051D0022B17D0454B00221A60FFF724FD14
:101460000446414B1B6813F0007F42D0FFF71CFD80
:10147000001B0228F5D903206FE03B4A136C23F0D0
:1014800080531364DBE7394B00221A60FFF70CFD31
:101490000546354B1B6813F0007F06D0FFF704FDAF
:1014A000401B0228F5D9032057E0E369226A134361
:1014B000626A43EA8213A26A5208013A43EA02438B
:1014C000E26A43EA0263284A5360284B01221A6009
:1014D000FFF7EAFC0446244B1B6813F0007F06D19B
:1014E000FFF7E2FC001B0228F5D9032035E00020BD
:1014F00033E0002031E0012B31D01B4B5B6803F45B
:101500008001E269914201D0012026E003F03F0210
:10151000216A8A4201D001201FE0616A47F6C07249
:101520001A40B2EB811F01D0012016E003F44031D4
:10153000A26A5208013AB1EB024F01D001200CE03F
:1015400003F07063E26AB3EB026F0AD0012004E09B
:1015500001207047012000E0002002B070BD012092
:10156000FBE70020F9E700BF003802406000474277
:10157000324B9B6803F00C03042B5CD0082B01D08A
:101580002F4870472DE9F04B2C4B5A6802F03F0270
:101590005B6813F4800F2BD0284B5B68C3F3881370
:1015A0001E4600275C010025E41A65EB0705A9012A
:1015B00041EA9461A001001B61EB0501CB0043EA05
:1015C0005073C400A01943EB07014B0243EAD05308
:1015D0004402204619460023FEF7FAFD174B5B68CC
:1015E000C3F3014301335B00B0FBF3F0BDE8F08BC4
:1015F000124B5B68C3F388131E4600275C0100256D
:10160000E41A65EB0705A90141EA9461A001001BFA
:1016100061EB0501CB0043EA5073C400A01943EB12
:1016200007018B0243EA90538402204619460023A7
:10163000FEF7CEFDD2E70348704700BF00380240F6
:101640000024F40000127A00002800F09E8070B59B
:101650000446504B1B6803F007038B4209D2CBB200
:101660004C4A1370136803F007038B4201D001202A
:1016700070BD236813F0020F17D013F0040F04D0CD
:10168000454A936843F4E0539360236813F0080FCE
:1016900004D0414A936843F4604393603E4A9368A0
:1016A00023F0F003A068034393600D46236813F012
:1016B000010F32D06368012B21D09A1E012A25D94F
:1016C000354A126812F0020F61D033498A6822F05D
:1016D000030213438B60FFF7E7FB06462E4B9B6824
:1016E00003F00C036268B3EB820F16D0FFF7DCFB4C
:1016F000801B41F288339842F0D90320B8E7264A8C
:10170000126812F4003FE0D10120B1E7224A1268CA
:1017100012F0007FD9D10120AAE71E4B1B6803F00D
:101720000703AB4209D9EAB21A4B1A701B6803F0DF
:101730000703AB4201D001209AE7236813F0040F9E
:1017400006D0154A936823F4E053E1680B43936095
:10175000236813F0080F07D00F4A936823F46043FF
:10176000216943EAC1039360FFF702FF0A4B9B68BC
:10177000C3F30313094AD35CD840094B1860094BE3
:101780001868FFF7F7FA002072E701207047012080
:101790006EE700BF003C024000380240804B00086A
:1017A0006000002068000020014B1868704700BFEF
:1017B0006000002008B5FFF7F7FF044B9B68C3F3F8
:1017C0008223034AD35CD84008BD00BF00380240E2
:1017D000904B000808B5FFF7E7FF044B9B68C3F385
:1017E0004233034AD35CD84008BD00BF00380240F2
:1017F000904B00080F2303600B4B9A6802F0030222
:1018000042609A6802F0F00282609A6802F4E05244
:10181000C2609B68DB0803F4E0530361034B1B6861
:1018200003F007030B60704700380240003C0240A1
:101830002DE9F04383B004460F4616461D46FFF7D8
:1018400033FB0A9B181A00EB0508FFF72DFB8146B6
:101850002A4B1B68C3F3CB3308FB03F301932368C4
:101860009B6837EA03030CBF01230023B34240D037
:10187000B5F1FF3FF3D0FFF717FBA0EB09004045A0
:101880000AD2B8F1000F07D0019B0BB94FF0000846
:10189000019B013B0193E2E72268536823F0E003D8
:1018A00053606368B3F5827F0BD0A36AB3F5005F22
:1018B00014D0012384F85130002384F850300320E1
:1018C00018E0A368B3F5004F02D0B3F5806FECD1F8
:1018D0002268136823F040031360E6E72268136868
:1018E00023F4005313602268136843F40053136019
:1018F000DFE7002003B0BDE8F08300BF60000020F8
:1019000030B585B0164C2468164DA5FB0434640D23
:101910004FF47A7505FB04F403944468B4F5827FB0
:101920000BD0039BC3B1039B013B039303689B68EC
:1019300013F0800FF5D100230FE00B460446009210
:1019400000228021FFF774FF034630B1636D43F03E
:1019500020036365032300E00023184605B030BD73
:1019600060000020819F5E1610B582B0044640687A
:10197000B0F5827F16D06068B0F5827F2ED1A36863
:10198000B3F5806F1BD000920B46002280212046C9
:10199000FFF74EFF034650B3636D43F020036365CA
:1019A000032324E0A368B3F5004F02D0B3F5806FA2
:1019B000E1D12068036823F040030360DBE7009275
:1019C0000B46002201212046FFF732FF034670B18B
:1019D000636D43F020036365032308E000920B4628
:1019E000002201212046FFF723FF034610B91846C5
:1019F00002B010BD636D43F0200363650323F6E777
:101A000000285AD010B50446436A33B94368B3F589
:101A1000827F05D00023C36102E00023036143619C
:101A20000023A36294F85130002B40D0022384F8A5
:101A300051302268136823F040031360636803F495
:101A40008273A26802F404421343E26802F4006263
:101A50001343226902F002021343626902F0010299
:101A60001343A26902F400721343E26902F03802E0
:101A70001343226A02F080021343A26A02F4005266
:101A8000216813430B60638B03F00403626A02F066
:101A90001002216813434B602268D36923F400636A
:101AA000D36100206065012384F8513010BD84F8B3
:101AB00050302046FFF7EEF8B8E7012070472DE9D7
:101AC000F04182B090F85040012C00F0C8801D46D3
:101AD000174688460446012380F85030FFF7E4F9A2
:101AE000064694F85130DBB2012B09D002200123C5
:101AF00084F85130002384F8503002B0BDE8F08102
:101B0000B8F1000F00F09D80002F00F09C800323AF
:101B100084F8513000236365C4F83080A786E786D7
:101B2000A363A387E38763642364A368B3F5004FCB
:101B30001CD023681A6812F0400F03D11A6842F0D3
:101B400040021A60E368B3F5006F1AD063680BB106
:101B5000012F4ED1226B236812781A73236B013345
:101B60002363E38E013B9BB2E38642E02268136865
:101B700023F0400313602268136843F4804313602A
:101B8000D7E763680BB1012F15D1226B2368128848
:101B9000DA60236B02332363E38E013B9BB2E3865F
:101BA00009E0FFF781F9801BA84202D3B5F1FF3F9E
:101BB0004BD1002D4BD0E38E9BB2002B2CD0236851
:101BC0009A6812F0020FECD0226B1288DA60236B55
:101BD00002332363E38E013B9BB2E386EBE7FFF71F
:101BE00063F9801BA84202D3B5F1FF3F31D1002D2C
:101BF00031D0E38E9BB27BB123689A6812F0020F5A
:101C0000EDD0226B12781A73236B01332363E38EBA
:101C1000013B9BB2E386ECE7324629462046FFF7BC
:101C20006FFE08B120236365A36833B9019323686D
:101C3000DA6801929B680193019B636D6BB9002088
:101C400055E7012053E7012051E703204FE7032028
:101C50004DE703204BE7032049E7012047E7022037
:101C60004BE72DE9F04383B0DDF8288090F8504031
:101C7000012C00F00B811D4617460E460446012339
:101C800080F85030FFF710F9814694F85100C0B247
:101C90006368012815D0B3F5827F0AD002230122A0
:101CA00084F85120002284F85020184603B0BDE883
:101CB000F083A368002B40F0DB80042801D00223CE
:101CC000EDE7002E00F0D680002F00F0D580002D2B
:101CD00000F0D48094F85130DBB2042B02D00523FD
:101CE00084F8513000236365A763E587A5872663E1
:101CF000E586A5862364636423681A6812F0400FA2
:101D000003D11A6842F040021A60E368B3F5006F2D
:101D100010D063680BB1012D0AD1226B23681278B1
:101D20001A73236B01332363E38E013B9BB2E3867B
:101D3000012569E063680BB1012D0AD1226B23688C
:101D40001288DA60236B02332363E38E013B9BB27C
:101D5000E38601251BE023689A6812F0010F0DD07D
:101D6000E28F92B252B1DA68A36B1A80A36B02338E
:101D7000A363E38F013B9BB2E3870125FFF794F850
:101D8000A0EB0900404502D3B8F1FF3F78D1E38EC4
:101D90009BB21BB9E38F9BB2002B52D023689A6889
:101DA00012F0020FD7D0E28E92B2002AD3D0002DCB
:101DB000D1D0226B1288DA60236B02332363E38E67
:101DC000013B9BB2E3860025C5E723689A6812F0C1
:101DD000010F0DD0E28F92B252B1DA68A36B1A7084
:101DE000A36B0133A363E38F013B9BB2E387012520
:101DF000FFF75AF8A0EB0900404502D3B8F1FF3FC6
:101E000040D1B8F1000F3FD0E38E9BB213B9E38FFE
:101E10009BB2B3B123689A6812F0020FD5D0E28E5C
:101E200092B2002AD1D0002DCFD0226B12781A7333
:101E3000236B01332363E38E013B9BB2E3860025D2
:101E4000C3E74A4641462046FFF75AFD034618B10C
:101E500020236365012322E7A268002A7FF41FAFD5
:101E600001922268D168019192680192019A16E765
:101E7000022314E7012312E7012310E701230EE7F1
:101E800003230CE703230AE7032308E702230CE7F5
:101E90002DE9F04182B004460F4690461D46436846
:101EA000B3F5827F19D094F85030012B00F0A48054
:101EB000012384F85030FEF7F7FF064694F85130BE
:101EC000DBB2012B15D00220012384F8513000230E
:101ED00084F8503002B0BDE8F0818368002BE2D175
:101EE000042380F85130009513460A46FFF7B9FEE7
:101EF000F0E7002F72D0B8F1000F71D0042384F8FE
:101F0000513000236365A763A4F83C80A4F83E80A9
:101F10002363A386E38623646364A368B3F5004F59
:101F20000BD023681A6812F0400F03D11A6842F0F0
:101F300040021A60E368ABB131E02268136823F015
:101F4000400313602268136823F480431360E8E7BA
:101F5000FEF7AAFF801BA84202D3B5F1FF3F41D193
:101F6000002D41D0E38F9BB2002B2BD023689A68C1
:101F700012F0010FECD0A26B1B7B1370A36B01332B
:101F8000A363E38F013B9BB2E387EBE7FEF78CFF94
:101F9000801BA84202D3B5F1FF3F27D145B3E38FA1
:101FA0009BB27BB123689A6812F0010FEED0DA6819
:101FB000A36B1A80A36B0233A363E38F013B9BB235
:101FC000E387ECE7324629462046FFF7CDFC08B10F
:101FD00020236365636D6BB9002075E7012073E70B
:101FE000012071E703206FE703206DE703206BE713
:101FF000032069E7012067E702206BE770470000D4
:1020000090F83D30DBB2012B01D001207047022354
:1020100080F83D300268D36843F00103D360036861
:10202000184A934220D0B3F1804F1DD0A2F57C42D4
:10203000934219D002F58062934215D002F5806276
:10204000934211D002F5784293420DD002F57052BE
:10205000934209D0A2F59432934205D01A6842F017
:1020600001021A60002070479A6802F00702062AEF
:1020700005D01A6842F001021A6000207047002063
:10208000704700BF000001407047704770477047BD
:1020900010B5044603681A6912F0020F11D0DA680D
:1020A00012F0020F0DD06FF002021A6101230377C4
:1020B00003689B6913F0030F70D0FFF7E6FF00235E
:1020C000237723681A6912F0040F12D0DA6812F02D
:1020D000040F0ED06FF004021A61022323772368E5
:1020E0009B6913F4407F5FD02046FFF7CEFF0023AB
:1020F000237723681A6912F0080F12D0DA6812F0F9
:10210000080F0ED06FF008021A61042323772368AA
:10211000DB6913F0030F4ED02046FFF7B6FF002314
:10212000237723681A6912F0100F12D0DA6812F0C0
:10213000100F0ED06FF010021A6108232377236866
:10214000DB6913F4407F3DD02046FFF79EFF00235C
:10215000237723681A6912F0010F03D0DA6812F0AE
:10216000010F36D123681A6912F0800F03D0DA68A4
:1021700012F0800F34D123681A6912F0400F03D097
:10218000DA6812F0400F32D123681A6912F0200F7A
:1021900003D0DA6812F0200F30D110BDFFF774FFC2
:1021A0002046FFF773FF8AE72046FFF76DFF2046C2
:1021B000FFF76CFF9BE72046FFF766FF2046FFF71F
:1021C00065FFACE72046FFF75FFF2046FFF75EFFA5
:1021D000BDE76FF001021A612046FEF767FCC1E718
:1021E0006FF080021A61204600F0A0F8C3E76FF09C
:1021F00040021A612046FFF74AFFC5E76FF0200250
:102200001A61204600F091F8C7E700000368304AE1
:10221000904212D0B0F1804F0FD0A2F57C42904294
:102220000BD002F58062904207D002F580629042A6
:1022300003D002F57842904203D123F070034A683C
:102240001343234A90422AD0B0F1804F27D0A2F501
:102250007C42904223D002F5806290421FD002F56A
:10226000806290421BD002F57842904217D002F56E
:102270007052904213D002F5806290420FD002F566
:10228000806290420BD0A2F59832904207D002F5BE
:102290008062904203D002F58062904203D123F421
:1022A0004073CA68134323F080034A6913430360F1
:1022B0008B68C3620B688362054B984203D003F5B9
:1022C0008063984201D10B69036301234361704726
:1022D0000000014038B310B5044690F83D30EBB132
:1022E000022384F83D30211D2068FFF78FFF012372
:1022F00084F8463084F83E3084F83F3084F840302B
:1023000084F8413084F8423084F8433084F8443013
:1023100084F8453084F83D30002010BD80F83C3012
:10232000FFF76CFEDCE70120704770477047000044
:102330002DE9F04B04460268136923F44053C16849
:102340000B43136183680269134342691343C269F3
:102350001A430168CB6823F4164323F00C0313439C
:10236000CB600268536923F4407381690B43536166
:1023700003683A4A934206D002F58062934202D043
:10238000FFF718FA01E0FFF725FAE369B3F5004F0C
:1023900030D04FF00009061849EB090716EB000B87
:1023A00047EB090C4FEACC0343EA5B734FEACB02DD
:1023B00093469C4663689A009B0F10EB0B0049EB19
:1023C0000C01FDF705FF264DA5FB003251096422E3
:1023D00002FB110213013233A5FB03235B0903F057
:1023E000F00202EB011203F00F03216813448B602B
:1023F000BDE8F08B83464FF0000C06184CEB0C0741
:1024000016EB000847EB0C094FEAC90343EA58737F
:102410004FEAC8029046994662680021921841EB43
:1024200001031BEB08004CEB0901FDF7D1FE0C4D3D
:10243000A5FB00325109642202FB1102D3003233A2
:10244000A5FB03235B095A0002F4F87202EB0112A8
:1024500003F00703216813448B60C9E700100140B3
:102460001F85EB512DE9F04104460F46164698466C
:10247000069D23681B6837EA03030CBF0123002372
:10248000B3422BD1B5F1FF3FF3D02DB1FEF70CFDD8
:10249000A0EB0800A842ECD9226802F10C0353E833
:1024A000003F23F4D0730C3242E800310029F3D10D
:1024B000226802F1140353E8003F23F001031432B1
:1024C00042E800310029F3D1202384F83D3084F81C
:1024D0003E30002384F83C30032000E00020BDE8BB
:1024E000F08158B310B5044690F83D300BB3242367
:1024F00084F83D302268D36823F40053D36020462B
:10250000FFF716FF2268136923F4904313612268D2
:10251000536923F02A0353612268D36843F40053BC
:10252000D36000202064202384F83D3084F83E30BE
:1025300010BD80F83C30FEF7E5FBD8E7012070477E
:102540002DE9F04182B01E4690F83D30DBB2202BE1
:1025500054D104460D469046002954D0002A54D048
:1025600090F83C30012B52D0012380F83C300023FE
:102570000364212380F83D30FEF796FC0746A4F85B
:102580002480A4F82680A368B3F5805F05D04FF0BF
:102590000008002384F83C3011E0236913B14FF0A8
:1025A0000008F6E7A8460025F3E738F8023B226862
:1025B000C3F308035360E38C013B9BB2E384E38CD9
:1025C0009BB273B100963B46002280212046FFF764
:1025D00049FFF0B9002DE8D015F8012B23685A60A7
:1025E000E9E700963B46002240212046FFF73AFFEC
:1025F000034680B9202284F83D2000E002231846DB
:1026000002B0BDE8F0810123F9E70123F7E70223D7
:10261000F5E70323F3E70323F1E7000008B5044BD4
:102620001B6801F0C3F8012801D001F01BFC08BDB4
:1026300010E000E0EFF305833BB9074B1B683BB9A3
:10264000054B01221A60002070476FF005007047AB
:102650004FF0FF30704700BFFC000020EFF3058310
:1026600073B90A4B1B68012B0DD110B50024084B20
:10267000DC77064B02221A6000F004FE204610BDF3
:102680006FF0050070474FF0FF307047FC000020EE
:1026900000ED00E0F0B587B000240594EFF3058469
:1026A0000CBB00B34AB31668946904B91824631EBE
:1026B000372B49D8536813F0010F47D1556915B12D
:1026C0004FEA950C01E04FF0800C93682BB1D7686E
:1026D0005B2F02D9176907B1ADB93BB14FF0FF3598
:1026E000012D17D015B3059807B0F0BDD36863B9B5
:1026F00013696BB14FF0FF35F2E7002518244FF056
:10270000800C2E46ECE70125EAE74FF0FF35E7E7BE
:102710000025E5E7136992680292019300940B4645
:102720006246314600F040FD0590DCE705AA0192C3
:1027300000940B461FFA8CF2314600F06FFD012821
:10274000D1D000230593CEE70020CDE70020CBE7D2
:1027500008B5EFF3058333B908B9002008BD00F0D0
:10276000E7FE0020FAE76FF00500F7E710B4054B2D
:102770001C1D046060330B60802313605DF8044B04
:10278000704700BFFC00002010B4064B03F518741E
:10279000046003F52F730B604FF4807313605DF8D2
:1027A000044B7047FC00002000F1080343604FF029
:1027B000FF328260C360036100230360704700231F
:1027C0000361704743684B609A688A609A685160F9
:1027D00099600861036801330360704730B40D6885
:1027E000B5F1FF3F02D000F1080202E0026904E007
:1027F0001A4653681C68AC42FAD953684B6099601A
:102800008A605160086103680133036030BC70471F
:1028100003694268816891608268416851605A68C2
:10282000824206D0002202611A68013A1A601868D2
:10283000704782685A60F5E710B5044601F0A2FAC5
:10284000A26BE36B9A4204D0002401F0BDFA20464B
:1028500010BD0124F9E710B5044601F093FAA36B0B
:1028600023B1002401F0B0FA204610BD0124F9E79D
:1028700070B504461646856B026C5AB903681BB1E5
:1028800000200135A56370BD806800F09FFF002324
:10289000A360F6E76EB9406801F020FD226C636822
:1028A00013446360A268934219D3236863600020D5
:1028B000E7E7C06801F012FD226C5242E36813445E
:1028C000E36021688B4202D2A3681A44E260022EC0
:1028D00001D00020D5E725B1013D0020D1E700203F
:1028E000CFE70020CDE7026C72B110B5C368134486
:1028F000C3608468A34201D30368C3600C46C16807
:10290000204601F0EBFC10BD704738B5054601F0DC
:1029100039FA95F8454064B203E000F03FFF013C0E
:1029200064B2002C08DD6B6A33B105F1240000F0BD
:10293000A7FE0028F3D0F0E7FF2385F8453001F02B
:1029400043FA01F01FFA95F8444064B203E000F046
:1029500025FF013C64B2002C08DD2B6933B105F181
:10296000100000F08DFE0028F3D0F0E7FF2385F87B
:10297000443001F029FA38BD38B540B94FF0500362
:1029800083F31188BFF36F8FBFF34F8FFEE70446C9
:102990000D4601F0F7F92168E26B236C03FB02108E
:1029A000A0600020A0636160013A02FB0313E360B2
:1029B000FF2384F8443084F84530A5B923691BB956
:1029C00001F002FA012038BD04F1100000F058FEB9
:1029D0000028F5D0084B4FF080521A60BFF34F8F9C
:1029E000BFF36F8FECE704F11000FFF7DDFE04F199
:1029F0002400FFF7D9FEE3E704ED00E038B51D46FB
:102A0000049C0B4649B92460E063236401212046FD
:102A1000FFF7B2FF84F84C5038BD2260F4E740B9AC
:102A20004FF0500383F31188BFF36F8FBFF34F8FC5
:102A3000FEE710B584B0044653B192B189B94FF0A6
:102A4000500383F31188BFF36F8FBFF34F8FFEE7FF
:102A50004FF0500383F31188BFF36F8FBFF34F8F95
:102A6000FEE74AB941B14FF0500383F31188BFF339
:102A70006F8FBFF34F8FFEE75020039003985028CD
:102A800008D04FF0500383F31188BFF36F8FBFF36B
:102A90004F8FFEE720461C46039B012384F84630F7
:102AA00000949DF81830FFF7A9FF204604B010BD30
:102AB000F0B585B0019260B1044699B9026C8AB153
:102AC0004FF0500383F31188BFF36F8FBFF34F8F25
:102AD000FEE74FF0500383F31188BFF36F8FBFF30E
:102AE0004F8FFEE7022B0BD1E26B012A08D04FF08B
:102AF000500383F31188BFF36F8FBFF34F8FFEE74F
:102B00001E460F4600F052FE50B9019B53B14FF0E4
:102B1000500383F31188BFF36F8FBFF34F8FFEE72E
:102B200000253AE0002538E0324639462046FFF7D6
:102B30009FFE636A4BB9A8B13B4B4FF080521A60BD
:102B4000BFF34F8FBFF36F8F0CE004F1240000F050
:102B500097FD38B1344B4FF080521A60BFF34F8F5E
:102B6000BFF36F8F01F030F9012005B0F0BD01F027
:102B70002BF90020F9E702A800F0C6FD012519E0B5
:102B8000002384F8443021E0002384F8453023E01A
:102B90002046FFF7BAFE00F053FC01F0F3F8A26BF9
:102BA000E36B9A42C0D3022EBED0019B002BDED035
:102BB000002DE0D001F008F900F0AAFB01F0E2F8E6
:102BC00094F844305BB2B3F1FF3FD9D094F845306C
:102BD0005BB2B3F1FF3FD7D001F0F6F801A902A82C
:102BE00000F09CFDC8B92046FFF726FE0028CFD094
:102BF000019904F1100000F00BFD2046FFF785FE5F
:102C000000F01EFC0028C8D1074B4FF080521A601C
:102C1000BFF34F8FBFF36F8FBFE72046FFF775FEFF
:102C200000F00EFC0020A0E704ED00E02DE9F843E1
:102C300060B1044699B9006C88B14FF0500383F33A
:102C40001188BFF36F8FBFF34F8FFEE74FF0500334
:102C500083F31188BFF36F8FBFF34F8FFEE7022B13
:102C60000BD1E06B012808D04FF0500383F311889B
:102C7000BFF36F8FBFF34F8FFEE71F469046894625
:102C800001F0A6F9EFF311864FF0500383F311889A
:102C9000BFF36F8FBFF34F8FA26BE36B9A4203D3E7
:102CA000022F01D0002010E094F845506DB2A36BC4
:102CB0003A4649462046FFF7DBFDB5F1FF3F08D015
:102CC0006B1C5BB284F84530012086F31188BDE8A7
:102CD000F883636A5BB104F1240000F0D1FC40B1D9
:102CE000B8F1000F07D00120C8F80000EDE701207F
:102CF000EBE70120E9E70120E7E70000F0B585B048
:102D0000019260B1044699B9036C8BB14FF0500346
:102D100083F31188BFF36F8FBFF34F8FFEE74FF040
:102D2000500383F31188BFF36F8FBFF34F8FFEE71C
:102D30000F4600F03BFD50B9019B53B14FF05003DB
:102D400083F31188BFF36F8FBFF34F8FFEE7002629
:102D50003EE000263CE039462046FFF7C4FD013D39
:102D6000A563236923B901F02FF8012005B0F0BD58
:102D700004F1100000F084FC0028F4D0344B4FF034
:102D800080521A60BFF34F8FBFF36F8FEBE701F0F4
:102D90001BF80020EAE702A800F0B6FC012621E0BB
:102DA000002384F8443029E0002384F845302BE0E8
:102DB0002046FFF7AAFD00F043FB09E02046FFF79D
:102DC000A4FD00F03DFB2046FFF745FD00283DD166
:102DD00000F0D8FFA56B002DBDD1019B002BD6D0F4
:102DE000002ED8D000F0F0FF00F092FA00F0CAFFF9
:102DF00094F844305BB2B3F1FF3FD1D094F8453042
:102E00005BB2B3F1FF3FCFD000F0DEFF01A902A813
:102E100000F084FC0028D1D12046FFF71CFD0028DB
:102E2000C6D0019904F1240000F0F2FB2046FFF720
:102E30006CFD00F005FB0028CAD1054B4FF0805215
:102E40001A60BFF34F8FBFF36F8FC1E700208DE78C
:102E500004ED00E00023072B0CD8074A52F833207A
:102E60000AB10133F7E7044A42F8331002EBC30317
:102E700058607047704700BF144B002070B504467F
:102E80000D46164600F07EFF94F844305BB2B3F175
:102E9000FF3F0DD094F845305BB2B3F1FF3F0BD04C
:102EA00000F092FFA36B5BB12046FFF72EFD70BDD3
:102EB000002384F84430EDE7002384F84530EFE741
:102EC0003246294604F1240000F0BCFBECE7000088
:102ED000074B9B6A1B6833B1054B9A6AD268D2686C
:102EE0005268DA627047024B4FF0FF32DA62704785
:102EF000B80700202DE9F04781460D4617469A464F
:102F0000089EDDF824800A9C9200A521206B01F028
:102F1000F0F9236B07F18042013A03EB820727F0B7
:102F2000070785B300230F2B07D8E95CE21882F866
:102F30003410EA5C0AB10133F5E7002384F843302A
:102F4000372E00D93726E662E66400252565201D68
:102F5000FFF735FC04F11800FFF731FC2461C6F1DE
:102F60003806A6616462656584F858505246494641
:102F7000384600F0D9FE2060B8F1000F01D0C8F843
:102F80000040BDE8F087002384F83430D8E7000023
:102F900070B5002407E004EB840293001048184445
:102FA000FFF702FC0134372CF5D90E4C04F592667C
:102FB0003046FFF7F9FB04F2A4452846FFF7F4FB7F
:102FC00004F11400FFF7F0FB04F59760FFF7ECFB4A
:102FD0002046FFF7E9FBA662C4F8CC5470BD00BFE1
:102FE000E8070020B807002038B5044600F0CAFE04
:102FF000274BD3F8D0240132C3F8D024D3F8D434EB
:1030000073B1234BD3F8D8348BB9214BD3F8D434D4
:10301000DA6AE36A9A420AD81D4BC3F8D44406E040
:103020001B4BC3F8D444D3F8D034012B2CD0184A0E
:10303000D2F8DC340133C2F8DC346364E36AD2F8DA
:10304000E024934202D9124AC2F8E034104D05F14F
:10305000300003EB83039A00211D1044FFF7B2FBFD
:1030600000F0B2FED5F8D8346BB1D5F8D434DA6AB2
:10307000E36A9A4207D2074B4FF080521A60BFF3BF
:103080004F8FBFF36F8F38BDFFF782FFCFE700BFD1
:10309000B807002004ED00E010B5044690F8593060
:1030A00033B9006B01F08EF8204601F08BF810BDAB
:1030B000012B0AD0022BFAD04FF0500383F3118872
:1030C000BFF36F8FBFF34F8FFEE701F07BF8EEE7A2
:1030D00038B517E000F056FE0D4CD4F8C434DD6866
:1030E000281DFFF795FBD4F8D034013BC4F8D03449
:1030F000D4F8E434013BC4F8E43400F065FE28461B
:10310000FFF7CAFF024BD3F8E434002BE2D138BDFD
:10311000B807002008B5FFF7DBFF064B1B6B012B40
:10312000F9D9054B4FF080521A60BFF34F8FBFF3B0
:103130006F8FF0E7B807002004ED00E070B504469B
:103140000E46184BD3F8E854D3F8D4040430FFF7F4
:103150005FFBB4F1FF3F12D02C44124BD3F8D434B0
:103160005C60A54214D80F4DA86AD5F8D414043178
:10317000FFF734FBEB6AA34212D9EC6210E0002E99
:10318000EAD00848D0F8D4140431FFF71BFB07E05D
:10319000044BD3F8CC04D3F8D4140431FFF71EFB4E
:1031A00070BD00BFB807002070B586B00B9D0C9CA9
:1031B00045B94FF0500383F31188BFF36F8FBFF30E
:1031C0004F8FFEE744B94FF0500383F31188BFF3EC
:1031D0006F8FBFF34F8FFEE75C260496049E5C2E34
:1031E00008D04FF0500383F31188BFF36F8FBFF304
:1031F0004F8FFEE7049E2563022584F85950002571
:103200000395029405AD01950A9D0095FFF772FEA6
:103210002046FFF7E9FE059806B070BD2DE9F043A2
:1032200085B00746884615469946900000F04CFF49
:1032300008B306465C2000F047FF0446B8B10663B9
:10324000E4B1002384F85930039302940D9B019359
:103250000C9B00934B462A4641463846FFF74AFEF0
:103260002046FFF7C1FE012005B0BDE8F0833046DF
:1032700000F0A8FFE4E74FF0FF30F5E74FF0FF3034
:10328000F2E7000010B588B000240594069407AA60
:1032900006A905A8FFF76AFA059B0293069B01930E
:1032A00000942346079A17491748FFF77DFF40B15E
:1032B00000F034FB012806D0B0F1FF3F18D008B071
:1032C00010BD0020F6E74FF0500383F31188BFF3E1
:1032D0006F8FBFF34F8F0D4B4FF0FF32DA62012239
:1032E000C3F8D8240022C3F8E82400F0EDFDE6E797
:1032F0004FF0500383F31188BFF36F8FBFF34F8FED
:10330000FEE700BFE44B000815310008B8070020B5
:10331000034AD2F8EC340133C2F8EC34704700BFF2
:10332000B8070020014BD3F8E8047047B807002025
:103330002DE9F041414BD3F8EC34002B73D13F4BD6
:10334000D3F8E8540135C3F8E854CDB99B6A1B683B
:1033500043B14FF0500383F31188BFF36F8FBFF376
:103360004F8FFEE7354B9A6AD3F8CC149962C3F8B5
:10337000CC24D3F8F0240132C3F8F024FFF7A8FDE1
:103380002E4BDB6AAB4244D900242C4AD2F8D43409
:10339000DB6A03EB830399000A44136B012B00D90A
:1033A0000124264BD3F8F434002B43D0012441E010
:1033B0000124224B9B6A1B686BB3204B9B6ADB6822
:1033C000DE6873689D422BD306F104084046FFF780
:1033D0001FFAB36A1BB106F11800FFF719FAF36A76
:1033E000164AD2F8E024934202D9144AC2F8E034D3
:1033F000124F07F1300003EB83039A00414610445B
:10340000FFF7E0F9F26AD7F8D434DB6A9A42CFD2F8
:10341000CFE70024CDE7094B4FF0FF32DA62B4E783
:10342000064AD362B1E7054AD2F8F8340133C2F84C
:10343000F83400242046BDE8F08100BFB807002022
:10344000394BD3F8EC3443B94FF0500383F3118870
:10345000BFF36F8FBFF34F8FFEE770B500F092FCA4
:10346000314BD3F8EC24013AC3F8EC24D3F8EC3414
:10347000002B54D12C4BD3F8D03423B9002400F0C6
:10348000A3FC204670BD0024274B5B692BB3264D5F
:103490002B6ADC6804F11800FFF7BAF9261D3046E4
:1034A000FFF7B6F9E36AD5F8E024934201D9C5F8ED
:1034B000E0341D4D05F1300003EB83039A003146E3
:1034C0001044FFF77FF9E26AD5F8D434DB6A9A42F8
:1034D000DAD30122C5F8F424D6E70CB1FFF7F8FCE3
:1034E000114BD3F8F84464B1FFF722FF18B10E4B2B
:1034F0000122C3F8F424013CF6D10B4B0022C3F89F
:10350000F824094BD3F8F4345BB1084B4FF08052E8
:103510001A60BFF34F8FBFF36F8F0124AFE7002412
:10352000ADE70024ABE700BFB807002004ED00E0E2
:1035300010B5B0B104460F4BD3F8EC3443B14FF0A3
:10354000500383F31188BFF36F8FBFF34F8FFEE7F4
:10355000FFF7DEFE00212046FFF7F0FDFFF770FFCA
:1035600038B9054B4FF080521A60BFF34F8FBFF34D
:103570006F8F10BDB807002004ED00E0234BD3F897
:10358000EC3423B1214B0122C3F8F42470471F4BC4
:103590000022C3F8F424D3F8E03403EB8302910053
:1035A0001A4A0A44126B5AB90BB1013BF5E74FF0C6
:1035B000500383F31188BFF36F8FBFF34F8FFEE784
:1035C00010B4124A9900CC18A0001044446B6468EF
:1035D00044633032194488000830024494420DD0CC
:1035E0000A4903EB830082000A44526BD268C1F897
:1035F000D424C1F8E0345DF8044B70476168034897
:10360000142202FB03025163EAE700BFB80700205F
:1036100040B94FF0500383F31188BFF36F8FBFF3AE
:103620004F8FFEE710B50C46054BD3F8D414183174
:10363000FFF7D4F801212046FFF780FD10BD00BF41
:10364000B807002038B540B94FF0500383F3118814
:10365000BFF36F8FBFF34F8FFEE70C461546074A47
:10366000D2F8D4141831FFF7ADF80DB14FF0FF3494
:1036700029462046FFF762FD38BD00BFB80700208D
:1036800038B5C368DC6844B94FF0500383F3118840
:10369000BFF36F8FBFF34F8FFEE704F11805284685
:1036A000FFF7B6F8154BD3F8EC3403BB251D2846BD
:1036B000FFF7AEF8E36A114AD2F8E024934202D948
:1036C0000E4AC2F8E03403EB83039A0029460C4803
:1036D0001044FFF777F8E26A084BD3F8D434DB6A7A
:1036E0009A4209D90120054BC3F8F40438BD294694
:1036F0000448FFF767F8EEE70020F7E7B807002077
:10370000E8070020CC070020034BD3F8F024026028
:10371000D3F8E83443607047B8070020F8B550B1DB
:10372000054689B94FF0500383F31188BFF36F8FBB
:10373000BFF34F8FFEE74FF0500383F31188BFF3C1
:103740006F8FBFF34F8FFEE70C4600F01BFB124B51
:10375000D3F8E81468680A1A2368B3F1FF3F17D05A
:103760002F680D4ED6F8F064B74201D0884211D9C7
:10377000934203D800232360012405E09B1A2360B1
:103780002846FFF7C1FF002400F01EFB2046F8BDCD
:103790000024F9E70124F7E7B8070020024B0122D3
:1037A000C3F8F424704700BFB8070020064BD3F8D5
:1037B000D8343BB1044BD3F8EC340BB10020704744
:1037C0000220704701207047B807002000283BD036
:1037D00038B504461F4AD2F8D424824208D04FF0AC
:1037E000500383F31188BFF36F8FBFF34F8FFEE752
:1037F000026D42B94FF0500383F31188BFF36F8F0E
:10380000BFF34F8FFEE7013A0265C06AE16C884260
:103810001CD0EAB9251D2846FEF7FAFFE36CE362E7
:10382000C3F13802A2610B4AD2F8E024934202D9D4
:10383000084AC2F8E0342946074A142000FB032056
:10384000FEF7C0FF012038BD002070470020FAE7D6
:103850000020F8E7B8070020E8070020064B1A68A8
:1038600013682BB90123036023B9D3681868704724
:103870000023F8E700207047B40C002008B5416031
:10388000006191420CD8D21A83699A4201D3012077
:1038900010E0011D094B5868FEF7A0FF002009E069
:1038A0009A4201D2994206D2011D044B1868FEF7D4
:1038B00095FF002008BD0120FCE700BFB40C0020EC
:1038C00070B582B000F05EFA124B9B681BB100F03D
:1038D0007BFA02B070BD0F4C04F10C063046FEF7C7
:1038E00063FF04F120052846FEF75EFF2660656051
:1038F0000023009304F1340304F1840210210A2010
:10390000FFF78DF8A0600028E1D00349FFF7A2FA85
:10391000DDE700BFB40C0020EC4B000810B588B008
:10392000FFF7CEFF134B9B68D3B100240594069498
:1039300007AA06A905A8FEF727FF059B0293069B89
:103940000193022300932346079A0B490B48FFF784
:103950002BFC084BC3F8240110B1012008B010BDA6
:103960004FF0500383F31188BFF36F8FBFF34F8F76
:10397000FEE700BFB40C0020F44B0008953C0008A3
:10398000C8B130B585B015460446174A906840B3B3
:103990001A4600910195029405291DDCFFF706FFE8
:1039A000022811D000231A4669460F488068FFF7A5
:1039B0007FF805B030BD4FF0500383F31188BFF39B
:1039C0006F8FBFF34F8FFEE70023089A69460648C2
:1039D0008068FFF76DF8ECE700236946FFF726F9EA
:1039E000E7E70020E5E700BFB40C0020214B1B688F
:1039F0001A68002A39D070B582B0DB681E68DC68AE
:103A0000251D2846FEF704FF236A2046984794F8B0
:103A1000283013F0040F0AD1164B1B681A68002ACD
:103A2000EBD1144A51681160536002B070BDA369B4
:103A300033449E4207D26360246129460D4B1868C7
:103A4000FEF7CCFEE8E7002100910B463246204607
:103A5000FFF796FF0028DFD14FF0500383F3118862
:103A6000BFF36F8FBFF34F8FFEE7024A51681160BB
:103A700053607047B40C002038B50546FFF752FC80
:103A80000446084BD3F82831834206D800232B6024
:103A9000044BC3F82841204638BDFFF7A7FF012398
:103AA0002B60F5E7B40C002070B582B005460E46D9
:103AB000174B1B68DB68DC68201DFEF7A9FE94F835
:103AC000283013F0040F08D123F0010384F82830C4
:103AD000236A2046984702B070BDA1692B46324642
:103AE00029442046FFF7CAFE0028F1D000210091AA
:103AF0000B462A462046FFF743FF0028E8D14FF047
:103B0000500383F31188BFF36F8FBFF34F8FFEE72E
:103B1000B40C002070B582B006460C46FFF7F8FBE7
:103B200001A8FFF7A9FF019B23BB05460CB9B042D2
:103B300017D224B1114B5B681B68CBB90124224614
:103B4000711B0E4B9868FFF799F9FFF779FC98B94C
:103B50000B4B4FF080521A60BFF34F8FBFF36F8F44
:103B60000AE0FFF76DFC29463046FFF79DFF03E0B2
:103B70000024E4E7FFF764FC02B070BDB40C002041
:103B800004ED00E030B589B002E0049B002B0FDAB1
:103B9000002204A93E4B9868FFF7B0F8002874D0C3
:103BA000049B002BF1DA07990698059B9847ECE7F0
:103BB000069C636913B1201DFEF72AFE03A8FFF7D8
:103BC0005BFF049B092BE3D8DFE803F00505053113
:103BD00038510505313894F8283043F0010384F852
:103BE00028300599A5690B46024629442046FFF76F
:103BF00045FE0028CCD0236A2046984794F8283008
:103C000013F0040FC4D0A269002100910B4605985F
:103C100002442046FFF7B4FE0028B9D14FF050030C
:103C200083F31188BFF36F8FBFF34F8FFEE794F8D4
:103C3000283023F0010384F82830A9E794F82830CD
:103C400043F0010384F828300599A16131B103469E
:103C5000024601442046FFF711FE99E74FF050035A
:103C600083F31188BFF36F8FBFF34F8FFEE794F894
:103C7000283013F0020F04D023F0010384F8283019
:103C800086E7204600F09EFA82E709B030BD00BF0B
:103C9000B40C002000B583B001A8FFF7DFFD019947
:103CA000FFF738FFFFF76EFFF6E7000082B0002352
:103CB00001930D4B1B68B3F1FF3F08D04FF0500349
:103CC00083F31188BFF36F8FBFF34F8FFEE74FF081
:103CD000500383F31188BFF36F8FBFF34F8F019BA6
:103CE000002BFCD002B070476C0000200848006830
:103CF000006880F308884FF0000080F3148862B6F3
:103D000061B6BFF34F8FBFF36F8F00DF00BF0000BE
:103D100008ED00E0DFF80C00016841F4700101607B
:103D20007047000088ED00E04FF0807340F8043CDD
:103D300021F0010140F8081C054B40F80C3C40F80C
:103D4000202C6FF0020340F8243C4438704700BF39
:103D5000AD3C000800000000000000000000000072
:103D6000074B19680868B0E8F04F80F30988BFF383
:103D70006F8F4FF0000080F311887047AFF3008021
:103D80008C0C00204FF0500383F31188BFF36F8F2A
:103D9000BFF34F8F0A4A136801331360012B00D021
:103DA0007047084B1B6813F0FF0FF9D04FF050031A
:103DB00083F31188BFF36F8FBFF34F8FFEE700BF10
:103DC0006C00002004ED00E0094B1B6843B94FF084
:103DD000500383F31188BFF36F8FBFF34F8FFEE75C
:103DE000013B034A13600BB983F31188704700BF8E
:103DF0006C00002000000000000000000000000037
:103E0000EFF30980BFF36F8F154B1A681EF0100F88
:103E100008BF20ED108A20E9F04F10602DE909005D
:103E20004FF0500080F31188BFF34F8FBFF36F8FB7
:103E3000FFF7A4FB4FF0000080F3118809BC19685C
:103E40000868B0E8F04F1EF0100F08BFB0EC108A01
:103E500080F30988BFF36F8F704700BFAFF3008016
:103E60008C0C002008B54FF0500383F31188BFF38A
:103E70006F8FBFF34F8FFFF75BFA18B1034B4FF013
:103E800080521A60002383F3118808BD04ED00E01E
:103E9000084A0023136008490B60084B1B68084957
:103EA000A1FB03139B09013B06490B600723136029
:103EB000704700BF10E000E018E000E06000002064
:103EC000D34D621014E000E0394B1A68394B9A4226
:103ED0000DD0374B1A68384B9A4211D14FF050032E
:103EE00083F31188BFF36F8FBFF34F8FFEE74FF05F
:103EF000500383F31188BFF36F8FBFF34F8FFEE73B
:103F000010B582B02D4B1A78D2B20192FF221A70EE
:103F10001B78DBB28DF803309DF8033003F05003BB
:103F2000274A13700723536009E0254A5368013B71
:103F300053609DF803305B00DBB28DF803309DF8D1
:103F4000033013F0800FF0D11D4B5B68032B08D0BA
:103F50004FF0500383F31188BFF36F8FBFF34F8F80
:103F6000FEE71B0203F4E063154A5360019BDBB2DA
:103F7000124A1370134B1A6842F470021A601A68DE
:103F800042F070421A60FFF783FF00240E4B1C6062
:103F9000FFF7C0FE0D4A136843F040431360FFF77C
:103FA000A5FEFFF7EBFAFFF781FE204602B010BD39
:103FB00000ED00E071C20F4170C20F4100E400E06B
:103FC000E00D002020ED00E06C00002034EF00E068
:103FD000EFF305830F2B0FD9104A9B5CDBB2104A1D
:103FE00012789A4208D94FF0500383F31188BFF337
:103FF0006F8FBFF34F8FFEE70A4B1B6803F4E0633C
:10400000074A5268934208D94FF0500383F311884E
:10401000BFF36F8FBFF34F8FFEE77047F0E300E011
:10402000E00D00200CED00E0104A12F0070F1AD04E
:10403000D11D21F00701C1F5705313440A460C4904
:104040000A60002048601344083B23F007038B609C
:1040500058601860981A50601360C86008614FF08B
:1040600000434B6170474FF47053E8E7080E00209F
:10407000E80D002010B4134B1A6882421BD3596814
:104080005C18844203D14068014459601846416875
:104090004418A24213D10B4CA468A2420DD052681E
:1040A000114441601A6812680260984200D018609A
:1040B0005DF8044B70471346DEE70460F5E70260E5
:1040C000F3E700BFE80D002070B50446FFF720F9C4
:1040D0003B4B9B68BBB13A4B5B691C4265D1ACB1B1
:1040E000083414F0070F11D024F00704083404F04A
:1040F00007035BB14FF0500383F31188BFF36F8F59
:10410000BFF34F8FFEE7FFF78FFFE4E7002C4ED0A1
:104110002B4B1B69A3424CD3294B1D6801E02B4656
:1041200015466A68A24202D22A68002AF7D1244AB8
:104130009268AA423FD01E6808362A681A606B68E7
:104140001B1B102B10D9281910F0070F08D04FF0A7
:10415000500383F31188BFF36F8FBFF34F8FFEE7D8
:1041600043606C60FFF786FF6968154A13695B1A44
:104170001361D268934201D2114AD360104B5A693D
:104180000A436A6000222A609A6901329A61FFF745
:1041900057F916F0070F10D04FF0500383F3118832
:1041A000BFF36F8FBFF34F8FFEE70026EFE70026C8
:1041B000EDE70026EBE70026E9E7304670BD00BFDB
:1041C000E80D002098B338B50446A0F1080550F872
:1041D000042C174949690A4208D14FF0500383F370
:1041E0001188BFF36F8FBFF34F8FFEE750F8080CB5
:1041F00040B14FF0500383F31188BFF36F8FBFF3CB
:104200004F8FFEE722EA010244F8042CFFF780F802
:1042100054F8042C064C2369134423612846FFF705
:1042200029FFE3690133E361FFF70AF938BD7047FD
:10423000E80D0020DFF834D00D480E490E4A002367
:1042400002E0D458C4500433C4188C42F9D30B4A4A
:104250000B4C002301E013600432A242FBD3FCF7B5
:10426000F3FD00F017F8FCF7BDFC704700000220DA
:1042700000000020D4000020404C0008D4000020A2
:10428000584B0020FEE70000014B1868704700BF44
:104290007000002070B50D4E0D4CA41BA41000251D
:1042A000A54209D10B4E0C4C00F028FCA41BA41015
:1042B0000025A54205D170BD56F825309847013537
:1042C000EEE756F8253098470135F2E7384C0008FC
:1042D000384C0008384C00083C4C000810B5431E10
:1042E0000A44914200D110BD11F8014B03F8014F6F
:1042F000F7E702440346934200D1704703F8011BDD
:10430000F9E700000EB400B59CB01DAB029006901A
:104310006FF00041094807910491094953F8042BB3
:1043200005910068019302A900F066F8029B002243
:104330001A701CB05DF804EB03B0704770000020E9
:104340000802FFFF2DE9F0478E689E4282460C4628
:104350009046994637D88A8912F4906F31D02568F3
:1043600009696F1A6569022305EB450595FBF3F5AD
:1043700009F101033B449D4238BF1D46530530D52A
:10438000294600F021FB064650B90C23CAF800303C
:10439000A38943F04003A3814FF0FF30BDE8F087CD
:1043A0003A462169FFF79AFFA38923F4906343F00B
:1043B0008003A381266165613E44ED1B2660A560F4
:1043C0004E464E4500D94E4632464146206800F0E2
:1043D00093FAA3689B1BA36023681E4426600020F9
:1043E000DCE72A4600F04AFB06460028E2D12169B4
:1043F000504600F09BFAC8E72DE9F04F1D468B8927
:104400001F069DB080460C4616460FD50B696BB94A
:10441000402100F0D9FA2060206128B90C23C8F8A7
:1044200000304FF0FF30C8E0402363610023099360
:1044300020238DF8293030238DF82A3003954FF052
:10444000010B37463D4615F8013B0BB1252B3ED1FC
:10445000B7EB060A0BD05346324621464046FFF7DB
:1044600071FF013000F0A480099B534409933B780D
:10447000002B00F09D8000234FF0FF32CDE9052393
:10448000049307938DF853301A932F46052217F89B
:10449000011B5048FCF724F8049BD0B9D90644BF4F
:1044A00020228DF853201A0744BF2B228DF8532069
:1044B0002A782A2A15D0079A2F4600200A2539463D
:1044C00011F8013B303B092B4DD9B8B10FE02F4615
:1044D000B8E7404A801A0BFA00F0184304903D46B2
:1044E000D3E7039A111D12680391002A01DB07929A
:1044F00004E0524243F00203079204933B782E2BD0
:104500000CD17B782A2B33D1039B1A1D1B68039295
:10451000002BB8BF4FF0FF33023705932E4D39788B
:1045200003222846FBF7DCFF38B14023401B03FA87
:1045300000F0049B034301370493397827488DF832
:10454000281006227E1CFBF7CBFF002838D0244B16
:1045500013BB039B073323F0070308330393099B23
:104560004B4409936DE705FB023201200F46A6E795
:1045700000230137059319460A25384610F8012B08
:10458000303A092A03D9002BC8D00591C6E705FBAC
:10459000012101230746F0E703AB00932246114BAC
:1045A00004A94046AFF30080B0F1FF3F8146D6D169
:1045B000A3895B063FF535AF09981DB0BDE8F08FC4
:1045C00003AB00932246074B04A9404600F082F853
:1045D000EAE700BFFC4B0008024C0008064C00084C
:1045E00000000000454300082DE9F04791461F46B2
:1045F0008A680B69DDF820809342B8BF1346C9F87A
:10460000003091F8432006460C4612B10133C9F838
:1046100000302368990642BFD9F800300233C9F848
:104620000030256815F0060507D104F1190AE36882
:10463000D9F800209B1AAB4228DC94F8433022685A
:10464000003318BF012392062DD404F143023946EA
:104650003046C047013020D02368E568D9F80020F3
:1046600003F00603042B08BFAD1AA36822690CBF30
:1046700025EAE57500259342C4BF9B1AED184FF05B
:1046800000091A344D451AD1002008E00123524692
:1046900039463046C047013003D14FF0FF30BDE806
:1046A000F0870135C3E7E1185A1C302081F8430038
:1046B000224494F8451082F843100233C5E70123E1
:1046C000224639463046C0470130E6D009F101099B
:1046D000D8E700002DE9F04301F1430C0C46097EB8
:1046E00085B06E291746064698460C9A00F0B380AE
:1046F00022D8632936D00AD8002900F0B980582979
:1047000000F0838004F1420584F8421032E064290D
:1047100001D06929F6D120681368050603F1040168
:104720002AD51B681160002B03DA2D225B4284F826
:1047300043206F480A2239E0732900F09D8008D891
:104740006F2920D07029DDD1236843F02003236036
:1047500003E0752917D07829D4D1782384F845301F
:10476000644855E01368191D1B68116004F1420587
:1047700084F8423001238CE01B68116010F0400F78
:1047800018BF1BB2CFE713682568181D10602806F4
:1047900001D51B6802E06806FBD51B8854486F29C9
:1047A00014BF0A220822002184F843106568A5601E
:1047B000002DC0F29580216821F004012160002BBA
:1047C0003DD1002D40F08E806546082A0BD123682C
:1047D000DB0708D5236962689A42DEBF302305F8FB
:1047E000013C05F1FF35ACEB05032361CDF80080FA
:1047F0003B4603AA21463046FFF7F6FE01304DD175
:104800004FF0FF3005B0BDE8F083394884F845101B
:10481000136821681D1D1B6815600A060BD5CA07A1
:1048200044BF41F0200121601BB9226822F0200220
:1048300022601022B7E74D0648BF9BB2EFE76546FE
:10484000B3FBF2F102FB1133C35C05F8013D0B46EB
:104850000029F5D1B9E7136825686169181D106052
:1048600028061B6801D5196002E06A06FBD519808D
:10487000002323616546B9E71368191D11601D689F
:10488000626800212846FBF72BFE08B1401B6060E0
:1048900063682361002384F84330A7E723692A462D
:1048A00039463046C0470130AAD023689B0713D44D
:1048B000E068039B9842B8BF1846A3E701234A4625
:1048C00039463046C04701309AD00135E368039A33
:1048D0009B1AAB42F2DCEBE7002504F11909F5E77E
:1048E000002BACD1037884F8423004F142056CE728
:1048F0000D4C00081E4C0008884210B501EB020365
:1049000007D8421E99420AD011F8014B02F8014F14
:10491000F8E78342F5D98118D21AD34200D110BDED
:1049200013F8014D01F8014DF7E7000038B50546D1
:10493000002945D051F8043C0C1F002BB8BFE418E7
:1049400000F0D2F81F4A1368104633B96360146050
:104950002846BDE8384000F0C8B8A3420CD9216809
:104960006218934204BF1A685B68636004BF521800
:1049700022600460ECE713465A680AB1A242FAD9F1
:1049800019685818A0420BD1206801445818824277
:104990001960DDD1106852685A6001441960D7E788
:1049A00002D90C232B60D3E7206821188A4204BF68
:1049B00011685268626004BF091821605C60C7E733
:1049C00038BD00BF084A002070B5CD1C25F0030596
:1049D00008350C2D38BF0C25002D064601DBA942F9
:1049E00003D90C233360002070BD00F07DF8214A0C
:1049F0001468214691B9204C23681BB9304600F059
:104A000063F820602946304600F05EF8431C24D14C
:104A10000C233360304600F068F8E4E70B685B1B5A
:104A200018D40B2B0FD90B60CD50CC18304600F0AA
:104A30005CF804F10B00231D20F00700C31AD3D04B
:104A40005A42E250D0E78C424B6816BF6360136055
:104A50000C46EBE70C464968CCE7C41C24F0030481
:104A6000A04205D0211A304600F02EF80130CFD0F8
:104A70002560DBE7084A00200C4A0020F8B507460D
:104A800014460E4621B91146BDE8F840FFF79CBF19
:104A900022B9FFF74BFF25462846F8BD00F026F85F
:104AA000A0420FD221463846FFF78EFF0546002868
:104AB000F2D031462246FFF711FC31463846FFF767
:104AC00035FFE9E73546E7E738B5064C00230546EC
:104AD00008462360FCF79AF9431C02D1236803B10E
:104AE0002B6038BD544B00207047704751F8043C90
:104AF000181F002BBCBF0B58C0187047F8B500BF7B
:104B0000F8BC08BC9E467047F8B500BFF8BC08BCAE
:044B10009E46704706
:104B1400D84B000800000000000000000000000066
:104B24000000000000020000280000000000000057
:104B340000000000CC4B0008000000000000000052
:104B44000000000000000000000200001800000047
:104B54000000000000000000C04B0008000000003E
:104B6400000000000000000000000000000200003F
:104B74000800000000000000000000000000000029
:104B840000000000010203040607080900000000F9
:104B9400010203044D414320416464726573733A16
:104BA4002025782C2025782C2025782C2025782C5D
:104BB4002025782C2025780A000000006D795461A6
:104BC400736B3033000000006D795461736B3032C5
:104BD4000000000064656661756C745461736B0059
:104BE40049444C4500000000546D7251000000001F
:104BF400546D722053766300232D302B2000686C93
:104C04004C006566674546470030313233343536EB
:104C14003738394142434445460030313233343524
:0C4C240036373839616263646566000051
:084C3000D0B5FF7F0100000078
:044C3800B5010008BA
:044C3C0091010008DA
:104C400053797374656D206973206F6B0D0A0000D2
:104C50000000000000000000000000000000000054
:104C60000000000000000000000000000000000044
:104C700000000000FFFFFFFFFFFF7469692D303661
:104C8000080600010800060400017469692D303629
:104C9000C0A80164000000000000C0A801010000DD
:104CA0000024F4000100000010000000AAAAAAAA33
:104CB0007400002000000000000000000000000060
:104CC00000000000000000000000000000000000E4
:104CD00000000000000000000000000000000000D4
:104CE00000000000000000000000000000000000C4
:104CF00000000000000000000000000000000000B4
:104D000000000000000000000000000000000000A3
:044D1000000000009F
:040000050800423578
:00000001FF
